{
  "_format": "hh-sol-artifact-1",
  "contractName": "MovieVoting",
  "sourceName": "contracts/MovieVoting.sol",
  "abi": [
    {
      "inputs": [],
      "stateMutability": "nonpayable",
      "type": "constructor"
    },
    {
      "inputs": [],
      "name": "AlreadyVoted",
      "type": "error"
    },
    {
      "inputs": [],
      "name": "InvalidPollId",
      "type": "error"
    },
    {
      "inputs": [],
      "name": "MovieNotFound",
      "type": "error"
    },
    {
      "inputs": [
        {
          "internalType": "address",
          "name": "caller",
          "type": "address"
        }
      ],
      "name": "NotOwner",
      "type": "error"
    },
    {
      "inputs": [],
      "name": "PollAlreadyEnded",
      "type": "error"
    },
    {
      "inputs": [],
      "name": "PollIsOngoing",
      "type": "error"
    },
    {
      "inputs": [],
      "name": "PollNotOngoing",
      "type": "error"
    },
    {
      "anonymous": false,
      "inputs": [
        {
          "indexed": false,
          "internalType": "uint256",
          "name": "pollId",
          "type": "uint256"
        },
        {
          "indexed": false,
          "internalType": "address",
          "name": "creator",
          "type": "address"
        }
      ],
      "name": "PollCreated",
      "type": "event"
    },
    {
      "anonymous": false,
      "inputs": [
        {
          "indexed": false,
          "internalType": "uint256",
          "name": "pollId",
          "type": "uint256"
        },
        {
          "indexed": false,
          "internalType": "string",
          "name": "winningMovie",
          "type": "string"
        }
      ],
      "name": "PollEnded",
      "type": "event"
    },
    {
      "anonymous": false,
      "inputs": [
        {
          "indexed": false,
          "internalType": "uint256",
          "name": "pollId",
          "type": "uint256"
        },
        {
          "indexed": false,
          "internalType": "uint256",
          "name": "votes",
          "type": "uint256"
        }
      ],
      "name": "VoteCasted",
      "type": "event"
    },
    {
      "stateMutability": "payable",
      "type": "fallback"
    },
    {
      "inputs": [
        {
          "internalType": "string[]",
          "name": "_movies",
          "type": "string[]"
        }
      ],
      "name": "createPoll",
      "outputs": [],
      "stateMutability": "nonpayable",
      "type": "function"
    },
    {
      "inputs": [
        {
          "internalType": "address",
          "name": "",
          "type": "address"
        },
        {
          "internalType": "uint256",
          "name": "",
          "type": "uint256"
        }
      ],
      "name": "creatorPolls",
      "outputs": [
        {
          "internalType": "uint256",
          "name": "",
          "type": "uint256"
        }
      ],
      "stateMutability": "view",
      "type": "function"
    },
    {
      "inputs": [
        {
          "internalType": "uint256",
          "name": "_pollId",
          "type": "uint256"
        }
      ],
      "name": "endPoll",
      "outputs": [],
      "stateMutability": "nonpayable",
      "type": "function"
    },
    {
      "inputs": [],
      "name": "getPollsByCreator",
      "outputs": [
        {
          "internalType": "uint256[]",
          "name": "",
          "type": "uint256[]"
        }
      ],
      "stateMutability": "view",
      "type": "function"
    },
    {
      "inputs": [
        {
          "internalType": "uint256",
          "name": "_pollId",
          "type": "uint256"
        },
        {
          "internalType": "string",
          "name": "_movie",
          "type": "string"
        }
      ],
      "name": "getVotesForMovie",
      "outputs": [
        {
          "internalType": "uint256",
          "name": "",
          "type": "uint256"
        }
      ],
      "stateMutability": "view",
      "type": "function"
    },
    {
      "inputs": [
        {
          "internalType": "uint256",
          "name": "_pollId",
          "type": "uint256"
        }
      ],
      "name": "getWinner",
      "outputs": [
        {
          "internalType": "string",
          "name": "",
          "type": "string"
        }
      ],
      "stateMutability": "view",
      "type": "function"
    },
    {
      "inputs": [
        {
          "internalType": "uint256",
          "name": "",
          "type": "uint256"
        }
      ],
      "name": "polls",
      "outputs": [
        {
          "internalType": "uint16",
          "name": "voteCount",
          "type": "uint16"
        },
        {
          "internalType": "address",
          "name": "creator",
          "type": "address"
        },
        {
          "internalType": "enum MovieVoting.VotingState",
          "name": "state",
          "type": "uint8"
        },
        {
          "internalType": "uint256",
          "name": "endTime",
          "type": "uint256"
        },
        {
          "internalType": "string",
          "name": "winner",
          "type": "string"
        }
      ],
      "stateMutability": "view",
      "type": "function"
    },
    {
      "inputs": [
        {
          "internalType": "uint256",
          "name": "_pollId",
          "type": "uint256"
        },
        {
          "internalType": "uint256",
          "name": "_durationMinutes",
          "type": "uint256"
        }
      ],
      "name": "startPoll",
      "outputs": [],
      "stateMutability": "nonpayable",
      "type": "function"
    },
    {
      "inputs": [
        {
          "internalType": "uint256",
          "name": "_pollId",
          "type": "uint256"
        },
        {
          "internalType": "string",
          "name": "_movie",
          "type": "string"
        }
      ],
      "name": "vote",
      "outputs": [],
      "stateMutability": "nonpayable",
      "type": "function"
    },
    {
      "stateMutability": "payable",
      "type": "receive"
    }
  ],
  "bytecode": "0x60a060405234801561001057600080fd5b503373ffffffffffffffffffffffffffffffffffffffff1660808173ffffffffffffffffffffffffffffffffffffffff16815250506080516121f061005d600039600050506121f06000f3fe60806040526004361061008a5760003560e01c80634129b2c9116100595780634129b2c9146101bf5780638439e976146101fc578063ac2f007414610239578063b359dd431461027a578063f43b8778146102a3576100ca565b8063166dc94b1461010557806323c89e5914610142578063241084751461016d5780633331ad9a14610196576100ca565b366100ca576040517f08c379a00000000000000000000000000000000000000000000000000000000081526004016100c19061102b565b60405180910390fd5b6040517f08c379a00000000000000000000000000000000000000000000000000000000081526004016100fc9061102b565b60405180910390fd5b34801561011157600080fd5b5061012c600480360381019061012791906110fa565b6102cc565b6040516101399190611169565b60405180910390f35b34801561014e57600080fd5b5061015761030b565b6040516101649190611242565b60405180910390f35b34801561017957600080fd5b50610194600480360381019061018f91906110fa565b6103a0565b005b3480156101a257600080fd5b506101bd60048036038101906101b89190611486565b6106b9565b005b3480156101cb57600080fd5b506101e660048036038101906101e191906114cf565b6108af565b6040516101f3919061156a565b60405180910390f35b34801561020857600080fd5b50610223600480360381019061021e91906115ea565b6109d3565b6040516102309190611169565b60405180910390f35b34801561024557600080fd5b50610260600480360381019061025b91906114cf565b610a04565b6040516102719594939291906116cd565b60405180910390f35b34801561028657600080fd5b506102a1600480360381019061029c9190611727565b610afd565b005b3480156102af57600080fd5b506102ca60048036038101906102c591906114cf565b610ce7565b005b600080600085815260200190815260200160002060020183836040516102f3929190611797565b90815260200160405180910390205490509392505050565b6060600160003373ffffffffffffffffffffffffffffffffffffffff1673ffffffffffffffffffffffffffffffffffffffff16815260200190815260200160002080548060200260200160405190810160405280929190818152602001828054801561039657602002820191906000526020600020905b815481526020019060010190808311610382575b5050505050905090565b6000806000858152602001908152602001600020905060008160010160003373ffffffffffffffffffffffffffffffffffffffff1673ffffffffffffffffffffffffffffffffffffffff16815260200190815260200160002090508060000160009054906101000a900460ff1615610444576040517f7c9a1cf900000000000000000000000000000000000000000000000000000000815260040160405180910390fd5b60028081111561045757610456611656565b5b8260030160169054906101000a900460ff16600281111561047b5761047a611656565b5b036104b2576040517fa5ed630300000000000000000000000000000000000000000000000000000000815260040160405180910390fd5b6000805b836000018054905081101561052d5785856040516104d59291906117e0565b60405180910390208460000182815481106104f3576104f26117f9565b5b9060005260206000200160405161050a9190611920565b604051809103902003610520576001915061052d565b80806001019150506104b6565b5080610565576040517f4e40395400000000000000000000000000000000000000000000000000000000815260040160405180910390fd5b826002018585604051610579929190611797565b90815260200160405180910390206000815461059490611966565b9190508190555082600301600081819054906101000a900461ffff166105b9906119ae565b91906101000a81548161ffff021916908361ffff16021790555082600201836005016040516105e89190611a70565b90815260200160405180910390205483600201868660405161060b929190611797565b9081526020016040518091039020541115610635578484846005019182610633929190611c29565b505b60018260000160006101000a81548160ff0219169083151502179055508484836001019182610665929190611c29565b507f5d4760119c8e8650149aac097d38c70515dfce015031561ad115606533e479be868460030160009054906101000a900461ffff166040516106a9929190611d2a565b60405180910390a1505050505050565b60008151116106fd576040517f08c379a00000000000000000000000000000000000000000000000000000000081526004016106f490611d9f565b60405180910390fd5b60006002600081548092919061071290611966565b9190505590506000806000838152602001908152602001600020905082816000019080519060200190610746929190610ece565b50338160030160026101000a81548173ffffffffffffffffffffffffffffffffffffffff021916908373ffffffffffffffffffffffffffffffffffffffff16021790555060008160030160166101000a81548160ff021916908360028111156107b2576107b1611656565b5b0217905550600160003373ffffffffffffffffffffffffffffffffffffffff1673ffffffffffffffffffffffffffffffffffffffff1681526020019081526020016000208290806001815401808255809150506001900390600052602060002001600090919091909150553360008084815260200190815260200160002060030160026101000a81548173ffffffffffffffffffffffffffffffffffffffff021916908373ffffffffffffffffffffffffffffffffffffffff1602179055507fb447d309fd3b1a27466cdb08ccc02ee5188e9c71fc58af042bafe3e0bb45123082336040516108a2929190611dbf565b60405180910390a1505050565b6060600080600084815260200190815260200160002090506002808111156108da576108d9611656565b5b8160030160169054906101000a900460ff1660028111156108fe576108fd611656565b5b1461093e576040517f08c379a000000000000000000000000000000000000000000000000000000000815260040161093590611e34565b60405180910390fd5b80600501805461094d90611857565b80601f016020809104026020016040519081016040528092919081815260200182805461097990611857565b80156109c65780601f1061099b576101008083540402835291602001916109c6565b820191906000526020600020905b8154815290600101906020018083116109a957829003601f168201915b5050505050915050919050565b600160205281600052604060002081815481106109ef57600080fd5b90600052602060002001600091509150505481565b60006020528060005260406000206000915090508060030160009054906101000a900461ffff16908060030160029054906101000a900473ffffffffffffffffffffffffffffffffffffffff16908060030160169054906101000a900460ff1690806004015490806005018054610a7a90611857565b80601f0160208091040260200160405190810160405280929190818152602001828054610aa690611857565b8015610af35780601f10610ac857610100808354040283529160200191610af3565b820191906000526020600020905b815481529060010190602001808311610ad657829003601f168201915b5050505050905085565b813373ffffffffffffffffffffffffffffffffffffffff1660008083815260200190815260200160002060030160029054906101000a900473ffffffffffffffffffffffffffffffffffffffff1673ffffffffffffffffffffffffffffffffffffffff1614610ba1576040517f08c379a0000000000000000000000000000000000000000000000000000000008152600401610b9890611ec6565b60405180910390fd5b6000806000858152602001908152602001600020905060016002811115610bcb57610bca611656565b5b8160030160169054906101000a900460ff166002811115610bef57610bee611656565b5b03610c26576040517fe33dee0000000000000000000000000000000000000000000000000000000000815260040160405180910390fd5b600280811115610c3957610c38611656565b5b8160030160169054906101000a900460ff166002811115610c5d57610c5c611656565b5b03610c94576040517fa5ed630300000000000000000000000000000000000000000000000000000000815260040160405180910390fd5b60018160030160166101000a81548160ff02191690836002811115610cbc57610cbb611656565b5b0217905550603c83610cce9190611ee6565b42610cd99190611f28565b816004018190555050505050565b803373ffffffffffffffffffffffffffffffffffffffff1660008083815260200190815260200160002060030160029054906101000a900473ffffffffffffffffffffffffffffffffffffffff1673ffffffffffffffffffffffffffffffffffffffff1614610d8b576040517f08c379a0000000000000000000000000000000000000000000000000000000008152600401610d8290611ec6565b60405180910390fd5b6000806000848152602001908152602001600020905060016002811115610db557610db4611656565b5b8160030160169054906101000a900460ff166002811115610dd957610dd8611656565b5b14610e19576040517f08c379a0000000000000000000000000000000000000000000000000000000008152600401610e1090611fa8565b60405180910390fd5b8060040154421015610e60576040517f08c379a0000000000000000000000000000000000000000000000000000000008152600401610e5790612014565b60405180910390fd5b60028160030160166101000a81548160ff02191690836002811115610e8857610e87611656565b5b02179055507f3cd8b7c47b6c58690f4c0495fa321395f529c14fdd30bb08aa5564d15402ddaf8382600501604051610ec19291906120b8565b60405180910390a1505050565b828054828255906000526020600020908101928215610f16579160200282015b82811115610f15578251829081610f0591906120e8565b5091602001919060010190610eee565b5b509050610f239190610f27565b5090565b5b80821115610f475760008181610f3e9190610f4b565b50600101610f28565b5090565b508054610f5790611857565b6000825580601f10610f695750610f88565b601f016020900490600052602060002090810190610f879190610f8b565b5b50565b5b80821115610fa4576000816000905550600101610f8c565b5090565b600082825260208201905092915050565b7f5468697320636f6e747261637420646f6573206e6f742061636365707420455460008201527f4800000000000000000000000000000000000000000000000000000000000000602082015250565b6000611015602183610fa8565b915061102082610fb9565b604082019050919050565b6000602082019050818103600083015261104481611008565b9050919050565b6000604051905090565b600080fd5b600080fd5b6000819050919050565b6110728161105f565b811461107d57600080fd5b50565b60008135905061108f81611069565b92915050565b600080fd5b600080fd5b600080fd5b60008083601f8401126110ba576110b9611095565b5b8235905067ffffffffffffffff8111156110d7576110d661109a565b5b6020830191508360018202830111156110f3576110f261109f565b5b9250929050565b60008060006040848603121561111357611112611055565b5b600061112186828701611080565b935050602084013567ffffffffffffffff8111156111425761114161105a565b5b61114e868287016110a4565b92509250509250925092565b6111638161105f565b82525050565b600060208201905061117e600083018461115a565b92915050565b600081519050919050565b600082825260208201905092915050565b6000819050602082019050919050565b6111b98161105f565b82525050565b60006111cb83836111b0565b60208301905092915050565b6000602082019050919050565b60006111ef82611184565b6111f9818561118f565b9350611204836111a0565b8060005b8381101561123557815161121c88826111bf565b9750611227836111d7565b925050600181019050611208565b5085935050505092915050565b6000602082019050818103600083015261125c81846111e4565b905092915050565b6000601f19601f8301169050919050565b7f4e487b7100000000000000000000000000000000000000000000000000000000600052604160045260246000fd5b6112ad82611264565b810181811067ffffffffffffffff821117156112cc576112cb611275565b5b80604052505050565b60006112df61104b565b90506112eb82826112a4565b919050565b600067ffffffffffffffff82111561130b5761130a611275565b5b602082029050602081019050919050565b600080fd5b600067ffffffffffffffff82111561133c5761133b611275565b5b61134582611264565b9050602081019050919050565b82818337600083830152505050565b600061137461136f84611321565b6112d5565b9050828152602081018484840111156113905761138f61131c565b5b61139b848285611352565b509392505050565b600082601f8301126113b8576113b7611095565b5b81356113c8848260208601611361565b91505092915050565b60006113e46113df846112f0565b6112d5565b905080838252602082019050602084028301858111156114075761140661109f565b5b835b8181101561144e57803567ffffffffffffffff81111561142c5761142b611095565b5b80860161143989826113a3565b85526020850194505050602081019050611409565b5050509392505050565b600082601f83011261146d5761146c611095565b5b813561147d8482602086016113d1565b91505092915050565b60006020828403121561149c5761149b611055565b5b600082013567ffffffffffffffff8111156114ba576114b961105a565b5b6114c684828501611458565b91505092915050565b6000602082840312156114e5576114e4611055565b5b60006114f384828501611080565b91505092915050565b600081519050919050565b60005b8381101561152557808201518184015260208101905061150a565b60008484015250505050565b600061153c826114fc565b6115468185610fa8565b9350611556818560208601611507565b61155f81611264565b840191505092915050565b600060208201905081810360008301526115848184611531565b905092915050565b600073ffffffffffffffffffffffffffffffffffffffff82169050919050565b60006115b78261158c565b9050919050565b6115c7816115ac565b81146115d257600080fd5b50565b6000813590506115e4816115be565b92915050565b6000806040838503121561160157611600611055565b5b600061160f858286016115d5565b925050602061162085828601611080565b9150509250929050565b600061ffff82169050919050565b6116418161162a565b82525050565b611650816115ac565b82525050565b7f4e487b7100000000000000000000000000000000000000000000000000000000600052602160045260246000fd5b6003811061169657611695611656565b5b50565b60008190506116a782611685565b919050565b60006116b782611699565b9050919050565b6116c7816116ac565b82525050565b600060a0820190506116e26000830188611638565b6116ef6020830187611647565b6116fc60408301866116be565b611709606083018561115a565b818103608083015261171b8184611531565b90509695505050505050565b6000806040838503121561173e5761173d611055565b5b600061174c85828601611080565b925050602061175d85828601611080565b9150509250929050565b600081905092915050565b600061177e8385611767565b935061178b838584611352565b82840190509392505050565b60006117a4828486611772565b91508190509392505050565b600081905092915050565b60006117c783856117b0565b93506117d4838584611352565b82840190509392505050565b60006117ed8284866117bb565b91508190509392505050565b7f4e487b7100000000000000000000000000000000000000000000000000000000600052603260045260246000fd5b7f4e487b7100000000000000000000000000000000000000000000000000000000600052602260045260246000fd5b6000600282049050600182168061186f57607f821691505b60208210810361188257611881611828565b5b50919050565b60008190508160005260206000209050919050565b600081546118aa81611857565b6118b481866117b0565b945060018216600081146118cf57600181146118e457611917565b60ff1983168652811515820286019350611917565b6118ed85611888565b60005b8381101561190f578154818901526001820191506020810190506118f0565b838801955050505b50505092915050565b600061192c828461189d565b915081905092915050565b7f4e487b7100000000000000000000000000000000000000000000000000000000600052601160045260246000fd5b60006119718261105f565b91507fffffffffffffffffffffffffffffffffffffffffffffffffffffffffffffffff82036119a3576119a2611937565b5b600182019050919050565b60006119b98261162a565b915061ffff82036119cd576119cc611937565b5b600182019050919050565b60008190508160005260206000209050919050565b600081546119fa81611857565b611a048186611767565b94506001821660008114611a1f5760018114611a3457611a67565b60ff1983168652811515820286019350611a67565b611a3d856119d8565b60005b83811015611a5f57815481890152600182019150602081019050611a40565b838801955050505b50505092915050565b6000611a7c82846119ed565b915081905092915050565b600082905092915050565b60006020601f8301049050919050565b600082821b905092915050565b600060088302611adf7fffffffffffffffffffffffffffffffffffffffffffffffffffffffffffffffff82611aa2565b611ae98683611aa2565b95508019841693508086168417925050509392505050565b6000819050919050565b6000611b26611b21611b1c8461105f565b611b01565b61105f565b9050919050565b6000819050919050565b611b4083611b0b565b611b54611b4c82611b2d565b848454611aaf565b825550505050565b600090565b611b69611b5c565b611b74818484611b37565b505050565b5b81811015611b9857611b8d600082611b61565b600181019050611b7a565b5050565b601f821115611bdd57611bae816119d8565b611bb784611a92565b81016020851015611bc6578190505b611bda611bd285611a92565b830182611b79565b50505b505050565b600082821c905092915050565b6000611c0060001984600802611be2565b1980831691505092915050565b6000611c198383611bef565b9150826002028217905092915050565b611c338383611a87565b67ffffffffffffffff811115611c4c57611c4b611275565b5b611c568254611857565b611c61828285611b9c565b6000601f831160018114611c905760008415611c7e578287013590505b611c888582611c0d565b865550611cf0565b601f198416611c9e866119d8565b60005b82811015611cc657848901358255600182019150602085019450602081019050611ca1565b86831015611ce35784890135611cdf601f891682611bef565b8355505b6001600288020188555050505b50505050505050565b6000611d14611d0f611d0a8461162a565b611b01565b61105f565b9050919050565b611d2481611cf9565b82525050565b6000604082019050611d3f600083018561115a565b611d4c6020830184611d1b565b9392505050565b7f4174206c65617374206f6e65206d6f7669652072657175697265640000000000600082015250565b6000611d89601b83610fa8565b9150611d9482611d53565b602082019050919050565b60006020820190508181036000830152611db881611d7c565b9050919050565b6000604082019050611dd4600083018561115a565b611de16020830184611647565b9392505050565b7f506f6c6c20686173206e6f7420656e6465642079657400000000000000000000600082015250565b6000611e1e601683610fa8565b9150611e2982611de8565b602082019050919050565b60006020820190508181036000830152611e4d81611e11565b9050919050565b7f4f6e6c79206f776e65722063616e2063616c6c20746869732066756e6374696f60008201527f6e00000000000000000000000000000000000000000000000000000000000000602082015250565b6000611eb0602183610fa8565b9150611ebb82611e54565b604082019050919050565b60006020820190508181036000830152611edf81611ea3565b9050919050565b6000611ef18261105f565b9150611efc8361105f565b9250828202611f0a8161105f565b91508282048414831517611f2157611f20611937565b5b5092915050565b6000611f338261105f565b9150611f3e8361105f565b9250828201905080821115611f5657611f55611937565b5b92915050565b7f506f6c6c206973206e6f74206f6e676f696e6700000000000000000000000000600082015250565b6000611f92601383610fa8565b9150611f9d82611f5c565b602082019050919050565b60006020820190508181036000830152611fc181611f85565b9050919050565b7f566f74696e6720706572696f6420686173206e6f7420656e6465642079657400600082015250565b6000611ffe601f83610fa8565b915061200982611fc8565b602082019050919050565b6000602082019050818103600083015261202d81611ff1565b9050919050565b6000815461204181611857565b61204b8186610fa8565b94506001821660008114612066576001811461207c576120af565b60ff1983168652811515602002860193506120af565b612085856119d8565b60005b838110156120a757815481890152600182019150602081019050612088565b808801955050505b50505092915050565b60006040820190506120cd600083018561115a565b81810360208301526120df8184612034565b90509392505050565b6120f1826114fc565b67ffffffffffffffff81111561210a57612109611275565b5b6121148254611857565b61211f828285611b9c565b600060209050601f8311600181146121525760008415612140578287015190505b61214a8582611c0d565b8655506121b2565b601f198416612160866119d8565b60005b8281101561218857848901518255600182019150602085019450602081019050612163565b868310156121a557848901516121a1601f891682611bef565b8355505b6001600288020188555050505b50505050505056fea2646970667358221220c8bf18c4705f601d4fe2d246c1273c48f98bf64ac5088de417ab10ce955ccc5364736f6c63430008180033",
  "linkReferences": {},
  "deployedLinkReferences": {}
}